:020000040800F2
:1080000000900020198E0108352E01083D2E010830
:108010000000000000000000000000000000000060
:10802000000000000000000000000000452E0108D4
:1080300000000000000000004F2E0108592E01082A
:10804000698E0108698E0108698E0108698E010830
:10805000698E0108698E0108698E0108698E010820
:10806000698E0108692E0108698E0108698E010870
:10807000698E0108698E0108698E0108698E010800
:10808000698E0108812E0108992E0108B12E010880
:10809000698E0108C92E0108E12E0108698E0108C8
:1080A000698E0108698E0108698E0108F92E0108A0
:0C80B000698E0108698E0108698E0108C4
:1080BC0010B5064C2378002B07D1054B002B02D0B2
:1080CC00044800E000BF0123237010BDE80200202B
:1080DC000000000080EC0108044B10B5002B03D00D
:1080EC000349044800E000BF10BDC046000000007A
:1080FC00EC02002080EC0108002243088B4274D370
:10810C0003098B425FD3030A8B4244D3030B8B428C
:10811C0028D3030C8B420DD3FF22090212BA030C95
:10812C008B4202D31212090265D0030B8B4219D376
:10813C0000E0090AC30B8B4201D3CB03C01A524196
:10814C00830B8B4201D38B03C01A5241430B8B42DE
:10815C0001D34B03C01A5241030B8B4201D30B03C7
:10816C00C01A5241C30A8B4201D3CB02C01A5241EE
:10817C00830A8B4201D38B02C01A5241430A8B42B1
:10818C0001D34B02C01A5241030A8B4201D30B029A
:10819C00C01A5241CDD2C3098B4201D3CB01C01AB4
:1081AC00524183098B4201D38B01C01A52414309BE
:1081BC008B4201D34B01C01A524103098B4201D3AC
:1081CC000B01C01A5241C3088B4201D3CB00C01A19
:1081DC00524183088B4201D38B00C01A5241430891
:1081EC008B4201D34B00C01A5241411A00D20146B6
:1081FC00524110467047FFE701B5002000F0F0F83F
:10820C0002BDC0460029F7D076E7704703460B4302
:10821C007FD4002243088B4274D303098B425FD373
:10822C00030A8B4244D3030B8B4228D3030C8B429F
:10823C000DD3FF22090212BA030C8B4202D3121285
:10824C00090265D0030B8B4219D300E0090AC30B5A
:10825C008B4201D3CB03C01A5241830B8B4201D307
:10826C008B03C01A5241430B8B4201D34B03C01AF0
:10827C005241030B8B4201D30B03C01A5241C30A68
:10828C008B4201D3CB02C01A5241830A8B4201D3D9
:10829C008B02C01A5241430A8B4201D34B02C01AC3
:1082AC005241030A8B4201D30B02C01A5241CDD268
:1082BC00C3098B4201D3CB01C01A524183098B42B3
:1082CC0001D38B01C01A524143098B4201D34B019C
:1082DC00C01A524103098B4201D30B01C01A5241FF
:1082EC00C3088B4201D3CB00C01A524183088B4286
:1082FC0001D38B00C01A524143088B4201D34B006F
:10830C00C01A5241411A00D20146524110467047E0
:10831C005DE0CA0F00D04942031000D340425340E5
:10832C0000229C4603098B422DD3030A8B4212D3A5
:10833C00FC22890112BA030A8B420CD389019211D7
:10834C008B4208D3890192118B4204D389013AD014
:10835C00921100E08909C3098B4201D3CB01C01AE9
:10836C00524183098B4201D38B01C01A52414309FC
:10837C008B4201D34B01C01A524103098B4201D3EA
:10838C000B01C01A5241C3088B4201D3CB00C01A57
:10839C00524183088B4201D38B00C01A5241D9D26F
:1083AC0043088B4201D34B00C01A5241411A00D2F0
:1083BC000146634652415B10104601D34042002BEC
:1083CC0000D54942704763465B1000D3404201B56B
:1083DC00002000F005F802BD0029F8D016E7704720
:1083EC007047C0468446100062468C4619006346AE
:1083FC0000E0C0461FB501F0C5FF002801D40021E4
:10840C00C8421FBD10B501F005FF4042013010BD40
:10841C0010B501F0B7FF002801DB002010BD0120D2
:10842C0010BDC04610B501F0ADFF002801DD0020E5
:10843C0010BD012010BDC04610B501F02FFF002863
:10844C0001DC002010BD012010BDC04610B501F0AC
:10845C0025FF002801DA002010BD012010BDC04608
:10846C00844608006146FFE71FB500F077FC002842
:10847C0001D40021C8421FBD10B500F0F7FB4042EB
:10848C00013010BD10B500F069FC002801DB0020A4
:10849C0010BD012010BDC04610B500F05FFC0028D7
:1084AC0001DD002010BD012010BDC04610B500F04C
:1084BC0005FC002801DC002010BD012010BDC046C9
:1084CC0010B500F0FBFB002801DA002010BD0120E4
:1084DC0010BDC046002B11D1002A0FD1002900D1AC
:1084EC00002802D00021C943080007B4024802A1A9
:1084FC004018029003BDC046E9FEFFFF03B4684676
:10850C0001B5029800F03CF8019B9E4602B00CBCF1
:10851C007047C0469E2110B5C905041CFFF7D0FF5B
:10852C00002803D1201C00F049FF10BD9E21201C07
:10853C00C90500F09FFD00F041FF80231B069C46FF
:10854C006044F2E770B500220C4B04000D00FFF7FD
:10855C007DFF002804D12000290002F00BFE70BD25
:10856C00064B00222000290002F046FA02F002FE1F
:10857C0080231B069C466044F1E7C0460000E041A6
:10858C00F0B557464E464546DE46E0B504000D00B4
:10859C009246994683B08B4230D82DD049465046EE
:1085AC0002F060FF29000600200002F05BFF331A86
:1085BC009846203B34D49B4653465A4693404246F9
:1085CC001F00534693401E00AF423BD8AF4200D130
:1085DC0079E05B46A41BBD41002B00DA76E000225B
:1085EC0000230092019301235A46934001930123E7
:1085FC0042469340009329E08242CFD900220023C7
:10860C00009201930C9B002B01D01C605D600098C4
:10861C00019903B0F0BCBB46B246A946A046F0BDDA
:10862C0042469B4620239B1A5246DA404146130091
:10863C004A468A40170042461F43534693401E0049
:10864C00AF42C3D900220023009201934346002B72
:10865C00D8D0FB0772081A4346467B080EE0AB42A3
:10866C0001D1A2420CD8A41A9D41012024196D41BC
:10867C000021013E24184D41002E06D0AB42EED90C
:10868C00013E24196D41002EF8D1009801995B46EA
:10869C0000196941002B24DB2B005A464446D34079
:1086AC002A00E2401C005B461500002B2ADB26004A
:1086BC009E40330026004746BE403200801A994146
:1086CC00009001919EE7A342BCD882E7424620234A
:1086DC0000219B1A0022009101920122DA400192A2
:1086EC0085E7424620239B1A2A0046469A402300DF
:1086FC00F340444613432A00E2401C005B4615003D
:10870C00002BD4DA42462F002023260097409B1AD8
:10871C00DE403B003343CDE7F8B5CE464746430237
:10872C005A0A4E024500C40F480091462D0E720A9B
:10873C00000E944680B59B09C90FB6092A1A8C42C3
:10874C0021D0002A0DDD00282DD1002E00D18DE086
:10875C00511E012A00D11DE1FF2A00D1ABE00A0015
:10876C0027E0002A4DD0421B002D00D0CCE0002B7E
:10877C0000D179E0541E012A00D128E1FF2A00D152
:10878C0097E02200C5E0002A00DC96E000284FD0DC
:10879C00FF2D00D18FE08021C9040E431B2A51DD2F
:1087AC002A00013318E0FF2D00D184E08021C90498
:1087BC000E4301211B2A08DC31002020D140821AF3
:1087CC0096403200501E824111435B1A5A0159D413
:1087DC0007212A00194049D00F211940042900D043
:1087EC000433590142D5501CFE2A3AD09B01C0B229
:1087FC005B0AC0051843E4072043C0BCB946B04629
:10880C00F8BDFE2080466F1C38004746074200D05A
:10881C008EE0002D00D0B4E0002B00D1DBE0002E68
:10882C006CD0981B450100D4F7E00C00F31A3DE026
:10883C00002E1BD0511E012A00D182E0FF2A3AD013
:10884C000A00ABE731002020D140821A964032005A
:10885C00501E82410A439B185A01B9D56A1CFE2D41
:10886C0075D1FF200023C4E70C003300DB08FF2A7E
:10887C0046D1002BF5D08022D20313435B02FF209C
:10888C005B0AB6E79F01BF09380002F0CDFD053841
:10889C008740854224DC3B002021421B0132D3401F
:1088AC008A1A97407A1E974100223B43590793D16D
:1088BC0097E70C003300DB08DBE7002A14D0421BDF
:1088CC00002D4BD1002BD0D0511E012A00D19EE09F
:1088DC00FF2AEFD00A001B2A5FDD0200731C7BE726
:1088EC00504B2A1A3B40E1E7FE216A1C11423BD156
:1088FC00002D5DD1002B7FD0002E7FD10022DB0814
:10890C005B025B0AD0B274E7FF28D2D08024E40467
:10891C00234301241B2A07DC1C002025D440AA1A5F
:10892C0093405A1E93411C43331B05000C004DE72A
:10893C009F1B7A0122D4002FA6D1002400200023F3
:10894C0057E79B1901250132590100D440E7012159
:10895C00354819405B0803400B43A7E7FF28A9D013
:10896C008021C9040B43B6E7FF2A00D179E79B1994
:10897C005B08590700D02FE7DB08C1E70C00F71A9A
:10898C0082E7002B2CD1002E93D180230024FF20D2
:10899C00DB032EE701259B1B18E719002025D1408E
:1089AC00AA1A93405A1E93410B4305009B1953E797
:1089BC00002B00D17EE7002E00D17CE78022D20371
:1089CC00914502D3944500D23300DB0853E70C00E9
:1089DC00F31A0135FAE6002EAFD00C0033008DE708
:1089EC00002E00D167E78022D2039145EDD3944548
:1089FC00EBD20C003300E8E733007FE79B19002231
:108A0C005901B9D5074A1340DB08012278E79B19B5
:108A1C000132013559019AD4DAE6031E8DD0DB08F8
:108A2C006EE7C046FFFFFFFBFFFFFF7DF0B54F4633
:108A3C004646D6464402C0B547000E1C640A3F0E9B
:108A4C00C50F002F3CD0FF2F42D000238022994627
:108A5C009A46E400D20414437F3F73025B0A9846A3
:108A6C0073001B0EF60F002B1BD0FF2B13D04246AE
:108A7C008021D200C9041143884600207F3B290085
:108A8C00FF1A4B467140C9B20F2B00D9B5E0744A9E
:108A9C009B00D3589F464346002B3FD1FF3F0233E8
:108AAC0003E04346002B2DD1012329004A46714097
:108ABC00C9B21A430E2A38D86A489200825897468F
:108ACC00002C13D104239946033B00279A46C4E794
:108ADC00002C05D108239946063BFF279A46BCE794
:108AEC000C239946093BFF279A46B6E7200002F073
:108AFC009BFC7627431F9C4000237F4299469A4655
:108B0C003F1AAAE7404602F08FFC4246431F9A40A8
:108B1C0076235B421B1A90460020B0E703234A469B
:108B2C001A4391460320FC33A9E70D00FF200022D5
:108B3C00C005ED0710432843E0BCBA46B146A84631
:108B4C00F0BD0D0000200022F2E75346022BEDD0C1
:108B5C00032B33D0A046012B05D100200022E7E7E0
:108B6C00350003287AD03B007F33002B2DDD4246A5
:108B7C00520707D00F2241460A40042A02D0042291
:108B8C009446E0444246120105D54246364B1A4003
:108B9C003B0090468033FE2BC8DC42469201520AC1
:108BAC00D8B2C5E780220025FF20D203C0E780227F
:108BBC00D203144202D04346134249D08022D2033E
:108BCC0022435202FF20520AB2E70122D31A1B2B76
:108BDC00C3DC4246DA4043469E37BB40591E8B41AC
:108BEC001A43530704D00F231340042B00D0043234
:108BFC00530129D5012000229AE742466301550111
:108C0C00AB4215D21B200022013F01261C00520052
:108C1C005B00002C01DB9D4201D85B1B3243013809
:108C2C000028F3D1581E8341134398460D009AE750
:108C3C001A2001225B1BE8E7023B5A4253415B427C
:108C4C0035000022D8B273E792010020520A6FE778
:108C5C001A4352023500FF20520A69E74446ADE739
:108C6C00F8EC010838ED0108FFFFFFF770B5420082
:108C7C004E024C0045026D0A120EC30F760A240EEA
:108C8C00C90FFF2A10D0FF2C0CD00120A2420AD110
:108C9C00B54208D18B420FD0002A04D12800431EC4
:108CAC00984100E0012070BD0120FF2CFBD1354321
:108CBC00F9D14B401800F6E70020F4E730B542003C
:108CCC0044024D02C30F4800640A120E6D0A000ED6
:108CDC00C90FFF2A19D0FF280BD0002A1ED100285B
:108CEC000BD1002D27D0002C34D100292FD0080017
:108CFC0030BD002D28D1002A01D1002CF5D08B429B
:108D0C0007D1002B23D01800F2E7002C1CD1FF2830
:108D1C0014D0581E022318400138E9E70028F8D077
:108D2C008B42F6D18242F4DCEBDBAC42F1D8002072
:108D3C00AC42DDD2E5E7002CDAD0EAE7002D03D116
:108D4C008B42E6D10020D3E702204042D0E701203D
:108D5C004042CDE78B42E8D0DBE7C04630B542005D
:108D6C0044024D02C30F4800640A120E6D0A000E35
:108D7C00C90FFF2A1AD0FF280ED0002A1ED10028B6
:108D8C000ED1002D2AD0002C0CD08B421DD0581E99
:108D9C0002231840013810E0002D0DD1002A20D1FB
:108DAC00002C1ED1002923D0080006E0002C03D192
:108DBC00FF28ECD1002D17D0022030BD0028E6D0C2
:108DCC008B42E4D18242E2DC04DBAC42DFD80020EF
:108DDC00AC42F2D2002B0BD01800EEE7002CECD0FA
:108DEC00D5E78B42D3D1F5E700208B42E5D0CEE717
:108DFC0001204042E1E7C046F0B54F464646D64614
:108E0C0043025B0A4500C0B599460F1C2D0EC60FD8
:108E1C00002D00D188E0FF2D00D18DE08022DB00F9
:108E2C00D2041A430023914698469A467F3D7C0211
:108E3C007B00640A1B0EFF0F002B68D0FF2B21D088
:108E4C008022E400D204144342467F3B5B1900218C
:108E5C005D1C0A2A2EDC7E404246022A23DC013AA3
:108E6C00012A00D9BDE002296ED001292CD10020A5
:108E7C000022C005F60710433043E0BCBA46B146A9
:108E8C00A846F0BD2B00FF33002C65D003224146D1
:108E9C0011433200013588467A40FF350A2900DD3E
:108EAC00D8E016000321404601228240A620C000D3
:108EBC00024220D05346022B46D0032B00D1BBE0FC
:108ECC0051464C460129D2D02B007F33002B70DD4C
:108EDC00620704D00F222240042A00D0043422015D
:108EEC0003D5634B1C402B008033FE2B2CDCA201E2
:108EFC00520AD8B2BDE790208000024227D1B9387F
:108F0C00FF3810426DD03E00A1468A46D2E7002CB5
:108F1C0041D1012342461A4390462B00424601217F
:108F2C005D1C0A2A97DDC5E7002B26D10423984641
:108F3C00033B00259A467AE7002B18D10823984664
:108F4C00063BFF259A4672E7FF20002291E780221C
:108F5C000026FF20D2038CE7414602220135114343
:108F6C008846FF350A29A5DC02217E4074E70C23D4
:108F7C009846093BFF259A4659E7180002F054FA27
:108F8C004A46431F76259A4000236D4291469846E7
:108F9C009A462D1A4BE7200002F046FA4246431F30
:108FAC009C402B1A763B00215D1C0A2A00DC52E700
:108FBC0080E70122D31A1B2B00DD58E79E352200D7
:108FCC00AC40DA40631E9C412243530704D00F236C
:108FDC001340042B00D00432530137D5012000225A
:108FEC0047E7210C4A462404240C2700100C1204D9
:108FFC00120C44435743484351433A0C0919521835
:10900C00944203D9802149028C4660443F041104E8
:10901C003F0CC9198C01671EBC41120C890E121829
:10902C000C439201144312010ED5012362081C401B
:10903C00144349E73E00A14680224B46D2031A4313
:10904C005202FF20520A14E71D003DE79201002056
:10905C00520A0EE70F29EDD180224B46D203134260
:10906C00EAD01442E8D13E00FF20224301E7C0467B
:10907C00FFFFFFF7F8B54746CE464E0243024500C8
:10908C00720AC40F480080B594465F0A2D0E9B09E6
:10909C00000EC90FB609FF2824D0012251402A1A0C
:1090AC008C420FD0002A00DC6AE1002835D1002E5A
:1090BC0000D1A2E0511E012A00D124E1FF2A21D0C7
:1090CC000A002FE0002A00DC67E100285ED0FF2DAB
:1090DC0018D08021C9040E431B2A00DC76E02A003C
:1090EC00013332E02A00FF3A9146002E42D08C42E6
:1090FC0055D04A46002A00D19CE0002D00D177E0E3
:10910C000C003300DB08002B00D16EE08022D20370
:10911C0013435B02FF205B0A24E0FF2DF2D0802179
:10912C00C9040E4301211B2A08DC31002020D14048
:10913C00821A96403200501E824111435B1A5A012A
:10914C0060D407212A00194057D00F211940042957
:10915C0000D00433590150D5501CFE2A45D09B0138
:10916C00C0B25B0AC0051843E4072043C0BCB94633
:10917C00B046F8BD012251408C42BAD14A46002A71
:10918C0010D0002D00D198E00023BBE7002E34D086
:10919C00511E012A6ED0FF2AB4D00A009CE7002A87
:1091AC0000D088E0FE206A1C104200D092E0002D16
:1091BC0000D0A4E0002B00D1CBE0002E00D0CAE000
:1091CC000022DB085B025B0AD0B2CBE73100202027
:1091DC00D140821A96403200501E82410A439B189D
:1091EC005A01AED56A1CFE2D4AD1FF200023B9E7E7
:1091FC00FF22002B4BD10C003300DB08FF2A00D1DF
:10920C0081E7DFE79F01BF09380002F00DF905384F
:10921C008740854221DC3B002021421B0132D34098
:10922C008A1A97407A1E974100223B43590700D077
:10923C008BE78FE7FE206A1C104212D1002D52D111
:10924C00002B7CD0002EBBD09A1B500100D48BE09D
:10925C0001240022F31A0C40E8E7564B2A1A3B4033
:10926C00E4E79F1B7A0146D4002FCDD100240020C7
:10927C00002377E79B1901250132590100D460E7DF
:10928C0001214D4819405B0803400B43CEE7571EA4
:10929C00012A5AD00C00FF2A33D001221B2F07DCE5
:1092AC002021C91B1A008B40FA40591E8B411A43CE
:1092BC000500B31A43E7002D23D1FF22002B9BD0CE
:1092CC00511E012AD6D0FF2A1BD01B292CDD0200EF
:1092DC00731C3AE7FF2A88D09B195B08590700D00A
:1092EC0033E7DB086EE7002B10D1002E43D00124AE
:1092FC0033000C4006E70124F71A0C4084E7002BDE
:10930C0004D13300FEE601259B1B18E7002E00D18B
:10931C00F8E68022D203974204D3944502D201246A
:10932C0033000C40DB08F1E61A002025CA40691A0C
:10933C008B40591E8B41134305009B1950E7002E9F
:10934C0094D0012433000C403AE70C000125F31AA9
:10935C00F5E6330034E79B1900225901C1D5154AB3
:10936C001340DB0801222DE7002A00D17EE7130011
:10937C000022DB0826E780230024FF20DB03F1E634
:10938C00002A00D156E7471B3A00002D00D130E7E8
:10939C008022D2040C0013437FE7002A00D101E79E
:1093AC00411B002D01D10A0088E78022D20413430F
:1093BC008BE7C046FFFFFFFBFFFFFF7D4102420032
:1093CC00C30F490A0020120E7E2A03DD9D2A02DDFE
:1093DC00094A98187047802000040143952A07DC3D
:1093EC009620821AD1404842002BF3D10800F1E7B5
:1093FC00963A9140F7E7C046FFFFFF7F70B5002813
:10940C0013D0C317C5185D40C40F280002F00CF828
:10941C009E2301001B1A962B0FDC082834D0083928
:10942C008D406D026D0AD8B202E0002400200025A8
:10943C00C0052843E407204370BD992B16DC421F5E
:10944C00052800D095402A00114802406E0709D02B
:10945C000F263540042D05D00432550102D59F232B
:10946C0002405B1A9201550AD8B2E1E70522121AA2
:10947C002800D040020008001B3085402800451E03
:10948C00A84102431500DEE76D0296206D0ACFE776
:10949C00FFFFFFFB70B5041E0ED001F0C5FF9E232D
:1094AC0001001B1A962B0CDC08282FD008398C4095
:1094BC006402640AD8B201E000200024C0052043F5
:1094CC0070BD992B16DC421F052800D09440220059
:1094DC0010480240650709D00F252C40042C05D0FC
:1094EC000432540102D59F2302405B1A9201540AA4
:1094FC00D8B2E3E7020020001B3290400200501E5D
:10950C0082410520401AC4401443E0E764029620CF
:10951C00640AD3E7FFFFFFFBF0B557464E464546BE
:10952C00DE46E0B583B0009001910C034F00CE0FE6
:10953C00610A009C1D03640F0C4300990092019377
:10954C00C80059004B0D9946009A019B6D0AD90F22
:10955C00530F2B439A46009B7F0DDA0094464A46E4
:10956C00B046BA1A8E4200D1B0E0002A00DC78E096
:10957C004946002900D1E9E0C9498F4200D195E163
:10958C000125382A16DC8021534609040B439A46E0
:10959C001F2A00DDE7E1202155468B1A61469D40CC
:1095AC00D1400D43614699404B1E99415346D340DF
:1095BC000D43E41A451BA84280414042241A230261
:1095CC0000D40FE16402640A002C00D139E12000C0
:1095DC0001F02AFF0300083B20212800CA1AD040C2
:1095EC009C4002009D4022439F4200DD73E1D81B4A
:1095FC000130091A2C008D40C4406B1E9D41130094
:10960C00C2408B402543002714001D436B0709D033
:10961C000F232B40042B05D02B1DAB42AD416D42CB
:10962C0064191D00230200D42DE19D4A0137974295
:10963C0000D1D3E046469B49ED0821404A072A4316
:10964C007C054D022D0B640D24052C43F607344389
:10965C001000210003B0F0BCBB46B246A946A046A0
:10966C00F0BD002A00D184E04A46D21B002F00D066
:10967C006DE12500054300D127E1561E012A00D1DA
:10968C003BE2874DAA4200D16AE20125382E12DC5A
:10969C0032001F2A00DDF8E120262500B61A07004B
:1096AC005346B040D440B540D740461EB0411B1B7A
:1096BC009A463D4305436246551BAC459241534681
:1096CC0052420E004F4688469C1A78E7002A00DC6E
:1096DC008EE04946002975D161465346194300D1A5
:1096EC00F6E0511E012A00D191E16D4DAA4200D144
:1096FC00DCE00125382914DC0A001F2A00DDA2E178
:10970C0020215346891A8B401D006346D3401D43CC
:10971C0063468B4019004B1E99415346D3400D4371
:10972C00E4182D188542804140422418230259D553
:10973C005B4B01379F4251D001215A4B6A081C40A8
:10974C0029400A43E507154364085FE76146534621
:10975C00194300D1BCE0511E012A00D164E1504DE7
:10976C00AA4200D16AE10125382900DD22E70A006E
:10977C000EE74D4A7D1C154200D0D0E02500624614
:10978C00534605431A43002F00D037E1002D00D17A
:10979C00A8E1002A00D16AE16346C51A5346E21AD1
:1097AC00A8429B415B42D31A1A0200D403E26346DF
:1097BC001D1AAC459241534652421C1B0E00884662
:1097CC00A41A23E736498F4270D00125382AA8DC29
:1097DC008021534609040B439A468EE73C00002532
:1097EC00002231E707232B40002B00D010E793E039
:1097FC00002A74D04A46D21B002F00D1C7E028495A
:10980C00894500D185E10125382A12DC8021090423
:10981C000C431F2A00DDABE120212500891A07002B
:10982C0088408D40D740411E8841D4403D4305437C
:10983C00A2446544654592415242524414004F463D
:10984C0074E7280001F0F0FD030018331F2B00DC37
:10985C00C2E62A00083882409F4200DDA9E0DB1BEB
:10986C00581C1F2800DCACE115001F3BDD402028F4
:10987C0005D040231B1A9A40531E9A4115430723C7
:10988C0000272B40B0E7ED08054B62072A43E4089C
:10989C009F420FD02403250B7C05640DD4E6C046F3
:1098AC00FF070000FFFF7FFFFE070000C0086207F4
:1098BC000243E4081300234300D186E180252D03E5
:1098CC0025432D03C34C2D0BBEE6604654460E00BB
:1098DC001700C508D8E7C04CFF1A144096E6BF4ADB
:1098EC00791C11426BD122000243002F00D0DBE027
:1098FC00002A00D12DE1624653461A4300D1B6E04E
:10990C006346C518854280415444404224182302C2
:10991C0002D50F00B04B1C403A002800D8E7624635
:10992C00851AA8429241534652429146E31A1A00B4
:10993C004B46D21A130091461A0254D44A464C464E
:10994C002A4300D040E60026002400257CE6A14DE9
:10995C00A94500D190E00125382A00DDABE6802531
:10996C002D042C4395E6110055462039CD40A946CF
:10997C00202A06D0402153468A1A934062461A4345
:10998C00944665466B1E9D414B461D4312E62100D5
:10999C00014300D1C4E0511E012A00D1FBE08D4DE2
:1099AC00AA4200D1B5E00125382900DD41E70A00C3
:1099BC002FE7894CFF1A14406207E4086AE7854ACE
:1099CC00914200D1E3E06346C218824280412300F9
:1099DC00404253441B18DD075C080723520815430B
:1099EC000F002B4000E763461D1AAC4592415346CD
:1099FC0052421C1B0E008846A41AE5E5002D00D02F
:109A0C0091E0002A38D180240026240356E76346CF
:109A1C00C518854280415444404224180127230232
:109A2C0000D4DFE6022787E66346C51AA8428041C8
:109A3C0053464042E41A0127241AC0E56207C008C5
:109A4C000243E40836E7110053462039CB409946CF
:109A5C00202A06D0402153468A1A934062461A4364
:109A6C00944665466B1E9D414B461D4359E6620765
:109A7C00C0080243E4080DE753465A076346D8086A
:109A8C0053460E000243DC0814E715002600203D67
:109A9C00EE40202A03D04025AA1A94402043421EAF
:109AAC0090410500354306E6002A7CD062465346B9
:109ABC00C0081A4300D1FAE6620710438022E4087A
:109ACC001203144208D0D908114205D16346D808B4
:109ADC0053460C005B071843420FC000C0085207E6
:109AEC000243E7E6002A00D12DE76346D808534627
:109AFC005A070E000243DC08CCE663461D1AAC453F
:109B0C009241534652421C1B0E008846A41A013740
:109B1C0055E56346D90853465A070A43DC08C9E69B
:109B2C0060465446D4E6C008002A00D1BFE662075E
:109B3C0010438022E40812031442CDD0DD081542F4
:109B4C00CAD16346D80853465B070E002C00184355
:109B5C00C2E76346D90853465A070A43DC0899E61C
:109B6C006346D80853465A070E000243DC08A1E6A8
:109B7C00110027002039CF40202A03D040218A1A17
:109B8C0094402043421E904105003D4351E60C0099
:109B9C000025002258E560446045924154445242ED
:109BAC000500A4183AE753465A076346D9085346AA
:109BBC000A43DC087EE61A001C002A4300D0ABE600
:109BCC00C1E620210025091A19E500220025014CC7
:109BDC003AE5C046FF070000FFFF7FFFFE070000CD
:109BEC00F0B5DE46454657464E46E0B587B0009286
:109BFC0001930B031B0B9B46CA0F4B0004008046C2
:109C0C005B0D029200D16AE1D44A934200D18CE1FF
:109C1C005946420FC9000A43802109041143C2006E
:109C2C009046CF4A894692469A44002300240393D7
:109C3C00009E019F3B031B0B9B467B0030005B0D82
:109C4C00FD0F002B00D128E1C44A934200D177E1EB
:109C5C005946720FC9000A438021090411438B46EF
:109C6C00BF49F2008C4651466344CB1A9A460023F6
:109C7C00029E6E400F2C27D8BA49A40009598F4672
:109C8C00CB464246029E039B022B16D0032B00D1DF
:109C9C00A6E2012B00D0DFE0002200230024904636
:109CAC001B052343F60733434046190007B0F0BCAD
:109CBC00BB46B246A946A046F0BD00220024904601
:109CCC00A64BEDE72E00DFE7CB4500D2D4E100D167
:109CDC00CFE101235B429C46444648460027E244C0
:109CEC005B46150E1B021D43190C2B04120200952A
:109CFC001D0C914602910395FEF784FA02006A430B
:109D0C000B04210C804619438A4209D9009D01237A
:109D1C00AC465B4261449C46E0448D4200D8FBE17A
:109D2C00881A0299FEF76EFA039A24044243090436
:109D3C00240C03000C43A24206D90099013B8C462B
:109D4C006444A14200D8E1E1A01A424612041A432D
:109D5C0093464B4659461B0C1D0004930B04494675
:109D6C000904090C0C001B0C5C43120C6B43884659
:109D7C0051436A43250CAC465B186344994203D9A2
:109D8C00802149028C466244190C24041B04240CC7
:109D9C008A181C19904202D316D1A74214D25B46E2
:109DAC00009D013B4F4405934F459B41AC465B42A4
:109DBC006344C018854200D3A1E1824200D9F6E188
:109DCC0000D1F1E1059B9B463C1BA742BF41009D86
:109DDC00801A7F42C01B854200D1D0E10299FEF768
:109DEC0011FA039A0B044243210C070019438A42CF
:109DFC0000D978E1881A0299FEF704FA039A240430
:109E0C0042430904240C03000C43A24200D95DE137
:109E1C004146A41A3A041A43049D13041B0C5943DB
:109E2C0047466B439C46100C47430B0CBC446344A5
:109E3C0068439F4203D980256D02AC4660441F0CD9
:109E4C0009041B04090C3F185B18BC4200D202E148
:109E5C0000D1FDE001231A43434B5344002B00DC9B
:109E6C00AEE0510700D098E15946C90106D55946D4
:109E7C003E4B194080238B46DB0053443C498B42BC
:109E8C0000DD1AE75946D208490711435A465B05CB
:109E9C0054028846240B5B0D02E75A46009B1A437A
:109EAC0000D17EE05B46002B00D100E1584601F06A
:109EBC00BBFA020003000B3A1D27009EBA1A1900C8
:109ECC005846D64008398840320002439346009ADF
:109EDC008A40284953448A469A440023C8E65B4684
:109EEC000343994656D05B46002B00D1CDE0584633
:109EFC0001F09AFA0B235B429C46020084446646AE
:109F0C001D239B1B260011005846DE400839884053
:109F1C0033000343994623008B409846164B00248C
:109F2C009B1A9A460023039382E65A4602439146B3
:109F3C002AD100229A46022390460824039377E6FE
:109F4C005A46009B1A430D4B9C46E244002A17D1FB
:109F5C0002231C4300239B46023389E6FF070000C3
:109F6C0001FCFFFF74ED0108FF030000FFFFFFFE83
:109F7C00FE070000F30300000DFCFFFF01F8FFFFDC
:109F8C00032332001C4373E69A460323D9460C2460
:109F9C0003934DE6002398469A4601330424039319
:109FAC0046E601231C4300239B46013360E6002355
:109FBC00802498460026924B240371E601225242DB
:109FCC000121C91A382900DD66E61F2900DCABE047
:109FDC001F204042C31A5846D8400300202904D001
:109FEC0058468849514488400243511E8A411A43BD
:109FFC00072319000024114013420CD00F231340E7
:10A00C00042B00D1F9E0111D91429B410A005B42E7
:10A01C0059075B021C0BD2080A43904600233FE60B
:10A02C0080244B462403234209D05B46234206D1AD
:10A03C001C4324032E009046714B240B30E68024E5
:10A04C004B4624031C432403029E6D4B240B27E632
:10A05C00002B00D100E70098511E844664448442D2
:10A06C0000D284E0BC4200D2AEE000D1C1E00A00D4
:10A07C00F0E6424500D92CE64B46DC07580843462F
:10A08C005B081C434346DF072AE601F0CDF9152394
:10A09C009C4684440200634620321C2B00DC2EE7D5
:10A0AC0023000838834099460023984636E701F090
:10A0BC00BBF902000300153220331C2A00DCFBE63E
:10A0CC0000990838814000228B4602E70099013B39
:10A0DC008C466444A14200D99AE6A24200D897E685
:10A0EC00831E644494E6AC466144013F8D4200D922
:10A0FC0080E68A4200D87DE6871E61447AE6854276
:10A10C0000D05FE6B94500D95CE656E6A24200D81D
:10A11C001AE6831E644417E68A4200D800E6AC4671
:10A12C00831E98466144FBE5374814005044824036
:10A13C005B4617008340CC407A1E974123433B4338
:10A14C001A005B46CB40510709D00F21114004295E
:10A15C0005D0111D9142924152429B180A001902DE
:10A16C0000D455E7002201230024904698E50A000C
:10A17C00BC4200D06EE64B4500D06BE66CE6234B40
:10A18C00234A5344924500DA18E7012149420A1D3B
:10A19C008A42894149428B4466E60F2111400429C9
:10A1AC0000D161E61100F2E7BC4200D80AE60223B6
:10A1BC005B429C4600994F444F459B41E3448C467F
:10A1CC005B426344C018FFE54946009D4800484582
:10A1DC008941AC46494261448146023A6418C7E75A
:10A1EC0080245B4624031C4324039046044B240B1D
:10A1FC0056E59945E8D30A00BDE7002308E7C046B9
:10A20C00FF0700003E0400001E040000FF030000D6
:10A21C0002FCFFFFF0B55746DE464E464546E0B51C
:10A22C000D000400E80F83460903D80F090B824682
:10A23C0019488C461F0369005E00490D3F0B760DD3
:10A24C00814218D086420FD00120B1420DD1BC45BD
:10A25C000BD1944209D1D3451CD0002905D16046BD
:10A26C002043431E984100E00120F0BCBB46B2469F
:10A27C00A946A046F0BD01208E42F6D16146394375
:10A28C000F0017432743F0D15B465246981A431EE2
:10A29C009841EAE70020E8E7FF070000F0B55746D1
:10A2AC004E464546DE46E0B50D000F03390B83B034
:10A2BC000400804601915800E90F314F400D8C4647
:10A2CC006E00190382469146760D090BD80FBE42DB
:10A2DC001FD0BA450FD0002E2FD15546019E3443C6
:10A2EC00002D27D10A433AD0002C45D100281AD191
:10A2FC000120404217E011433BD1002E02D1019FB7
:10A30C002743F3D0844509D16346002BF0D0604637
:10A31C0009E0019F27432CD1B24524D0634602208B
:10A32C00013B1840013803B0F0BCBB46B246A9460D
:10A33C00A046F0BD002CD9D0E4E75446002CEDD05B
:10A34C008445EBD15645E9DCDEDB019B8B42E5D83D
:10A35C00DAD1C845E2D80020C845E4D2D4E70020C1
:10A36C00002CE0D0DAE7114303D18445D6D100208C
:10A37C00D9E702204042D6E78445E6D0CEE7C04676
:10A38C00FF070000F0B557464E464546DE46E0B5A1
:10A39C000D000F0304008046E80F390B844683B090
:10A3AC005800304F400D01911E03690082469146C2
:10A3BC00490D360BD80FB94220D0BA450FD0002921
:10A3CC002BD101990C435146002937D1324338D057
:10A3DC00002C44D1002819D10120404216E016432C
:10A3EC0013D1002902D1019F2743F3D0844520D0FB
:10A3FC0063460220013B1840013807E0019F2743C8
:10A40C0003D18A45F4D116431FD0022003B0F0BC0F
:10A41C00BB46B246A946A046F0BD5446002CE7D038
:10A42C008445E5D15145E3DC03DB019BB342DFD826
:10A43C000FD06346002BCFD06046E7E7002CC9D085
:10A44C00D4E70020002CE1D0D2E78445D0D1002005
:10A45C00DCE7C845CCD80020C845D7D2E9E784450D
:10A46C00E3D0C5E7FF070000F0B55746DE464E4681
:10A47C004546E0B51F000B031B0B16009A46CA0F8E
:10A48C004B000400934687B05B0D00D1D5E0BB4A6E
:10A49C00934200D1F8E05146420FC9000A43802193
:10A4AC0009041143C2009146B54A8A469D180023FF
:10A4BC00984602933C037B00FA0F3000240B5B0D93
:10A4CC00009200D196E0AD4A934231D0720FE40075
:10A4DC002243802424041443A94AF0009446634484
:10A4EC005B195A1C0192424600260A2A42DC5A4643
:10A4FC0000994A4093464246022A32DC013A012A2C
:10A50C0000D949E1022E00D1CAE0012E3DD1002331
:10A51C000024002210005A461B052343D207134384
:10A52C00190007B0F0BCBB46B246A946A046F0BD28
:10A53C00924B2643EB18002E00D1BBE00322414680
:10A54C0011435A46884600994A40802109018C469D
:10A55C0029006144019141460A2900DD33E293460A
:10A56C000326424601279740A6213A00C9000A401B
:10A57C000F4231D0029E022E00D135E2032E00D1C3
:10A58C00D2E154464846012EC1D0019A7D4B9446E7
:10A59C006344002B00DCC0E0420709D00F220240CC
:10A5AC00042A05D0021D824280414042241810002A
:10A5BC00E20106D5744B019A1C4080239446DB00C3
:10A5CC006344724A93426BDC6207C00864025B0509
:10A5DC000243240B5B0D9DE7902189000F4263D150
:10A5EC0088223A4200D1D7E0009BA2469B46814686
:10A5FC000296BFE72300334300D17FE0002C00D14B
:10A60C00ADE1200000F010FF020003000B3A1D200A
:10A61C001900821A30000839D0408C4004433000B5
:10A62C0088405B4AEB1A944663445A1C019242469A
:10A63C0000260A2A00DC5AE79CE753460343994656
:10A64C0054D05346002B00D177E1504600F0ECFE7D
:10A65C000B235B429C46020084441100504608398F
:10A66C0088401D23804660461B1A2000D8400300FA
:10A67C00404603439A4623008B4099460023444DA1
:10A68C009846AD1A029315E752460243914626D1DD
:10A69C0000221D000223924608329046029309E7DD
:10A6AC0000240022354B35E7002380249B462403ED
:10A6BC00324B2FE70222414611438022120194466D
:10A6CC002A006244884601920A2900DD52E75A4664
:10A6DC000020009904004A40934602260BE70C2206
:10A6EC001D000323814690460293E3E600239A461D
:10A6FC0004339846033B00250293DBE642460133C4
:10A70C001A432B0090465A1C01924246002400200A
:10A71C0001260A2A00DCEAE62CE70122D21A382AA2
:10A72C0000DDF4E61F2A00DC2AE11F214942CB1A86
:10A73C002100D9400B00202A05D0164A019D9446D1
:10A74C006544AC402043421E904118430723190036
:10A75C000024014003420CD00F230340042B00D1F2
:10A76C0040E1031D8342A441180064426107640266
:10A77C00240BC20800230A43CCE6C046FF070000A6
:10A78C0001FCFFFFFF030000FFFFFFFEFE070000C0
:10A79C000DFCFFFF3E04000049464A460904090C23
:10A7AC000D00160C020C0004000C4543AC460500D1
:10A7BC007543A84615000F007543009202952A00B8
:10A7CC00009D6F4365462D0CA94647444F44B84540
:10A7DC0005D91500802252029046454402953D0C45
:10A7EC00039565462D043F042D0CAC463D00654495
:10A7FC000495250C2404240CAC4625007543A8466E
:10A80C0065460F006943414489466743390C494406
:10A81C006E43884503D980225202904646440D0C63
:10A82C00A846350045440595039D3F04A8463F0CBA
:10A83C000904C91988444546039555462E04360C1F
:10A84C002F0C35004543784381463800A8462D0C23
:10A85C00AA46009A504372434A445244914503D944
:10A86C0080256D02A9464844150CA94645462D0481
:10A87C002D0CA84665467D43120448449044A946D5
:10A88C003200654662436E437C43170C3619BF1980
:10A89C00BC4203D980246402A446E144029C039E7A
:10A8AC00A446059D66448E428941AC4612043C0484
:10A8BC00120CA2186244494254184644A446464518
:10A8CC00A44182466442A046AA4292418C458941E9
:10A8DC00E244D044494252420A43A045A441824535
:10A8EC008941644249420C4341463F0CD21912192A
:10A8FC00CC0D049970020843411E884141464A44DC
:10A90C00F60D52023043490214430843D20135D5A7
:10A91C000122430802401343E0071843640834E65D
:10A92C00009BA2469B4681468024534624031C432D
:10A93C0024034A462E4B240BECE500F075FD152341
:10A94C009C4684440200634620321C2B00DC84E6C7
:10A95C00002399462300083883409A468EE600F07F
:10A96C0063FD02000300153220331C2A00DC4EE686
:10A97C0002003400083A0020944052E6019304E6A9
:10A98C001C4B21009C460300019DD3406544A9400B
:10A99C0019430300AB40581E834119430800D440AF
:10A9AC004B0709D00F230B40042B05D00B1D8B42FA
:10A9BC008041404224181800230200D4D6E601231B
:10A9CC0000240022A6E50F29AAD1802352461B039E
:10A9DC001A42A9D01C42A7D11C43009B02009B46E3
:10A9EC00034B97E50024C1E60024014B220091E5BE
:10A9FC00FF0700001E040000F0B54E464546DE463B
:10AA0C005746E0B585B0009001910C034F00CE0F76
:10AA1C00610A009CB046640F0C4300997F0DC8007E
:10AA2C0011001A001B039C460091019251004B0D22
:10AA3C009946019B009DD90F63466A0F5B0A13432D
:10AA4C00EA0094469346C14A03900293914500D183
:10AA5C00CDE0012569404D467D1BAA468E4200D1B2
:10AA6C0080E0002D00DC35E34946002900D1DFE011
:10AA7C00974200D194E152460125382A19DC8022F4
:10AA8C00029B12041343029352461F2A00DDE3E19A
:10AA9C00534620226146029DD21A9540D9400D435F
:10AAAC00614691400A00511E8A411543029ADA40D0
:10AABC00A41A451BA84280414042241A230200D408
:10AACC003DE16402640A002C00D147E1200000F053
:10AADC00ABFC0300083B20212800CA1AD0409C4044
:10AAEC0002009D4022439F4200DD77E1D81B0130DC
:10AAFC00091A2C008D40C4406B1E9D411300C240AE
:10AB0C008B402543002714001D436B0709D00F23EE
:10AB1C002B40042B05D02B1DAB42AD416D4264196B
:10AB2C001D00230200D440E1884A0137974200D12E
:10AB3C0001E1012643468649ED0821404A072A4394
:10AB4C007C054D022D0B640D1E4024052C43F6078D
:10AB5C0034431000210005B0F0BCBB46B246A946F8
:10AB6C00A046F0BD002D00DCD0E24946002900D003
:10AB7C00D4E06146029B194300D12BE1691E012DE3
:10AB8C0000D1D9E1954200D10AE10125382917DC21
:10AB9C008A4653461F2B00DDE7E12022D21A029B86
:10ABAC00614693401D005346D940634693401A00BA
:10ABBC000D43511E8A4153461543029ADA40A4189C
:10ABCC002D188542804140422418230200D4B6E05F
:10ABDC005E4B01379F4200D1ADE001215C4B6A080E
:10ABEC001C4029400A43E507154364088DE7594A80
:10ABFC00029B92466246BA441A432CD08E422ED007
:10AC0C005246002A60D0002F00D1DBE063460E00D4
:10AC1C00029CD80862070243E4081300234300D1C6
:10AC2C0054E280252D0325432D03484C2D0B8CE736
:10AC3C006146029B194300D1CCE029000139012D5A
:10AC4C0000D188E1954200D1AAE00125382900DD28
:10AC5C002FE78A4618E7012251408E42D0D1534645
:10AC6C00002B00D1BEE0002F00D038E1CA462200F4
:10AC7C00024300D1E2E15346591E012B00D10DE2F3
:10AC8C00324A924500D1D2E10127382913DC1F2921
:10AC9C0000DDEEE12022029B521A250007009A46A5
:10ACAC00CC4090409540CF40A244421E9041534628
:10ACBC002F43074302933D00654465459241029B37
:10ACCC0052424F46D41880E7234A7D1C154200D0CF
:10ACDC00AAE062462500029B05431A43002F00D0D0
:10ACEC00F5E0002D00D16BE1002A00D152E1634662
:10ACFC00C51A029BE21AA8429B415B42D31A1A0264
:10AD0C0000D4D5E163461D1AAC4592410126029B45
:10AD1C0052421C1B8846A41A0E40F6E697423FD0BE
:10AD2C0052460125382A00DD4AE78022029B120494
:10AD3C00134302932DE73C000025002205E707236F
:10AD4C002B40002B00D0E2E66BE0C046FF07000072
:10AD5C00FFFF7FFF01F8FFFFFE070000280000F057
:10AD6C0063FB030018331F2B00DCB4E62A00083801
:10AD7C0082409F4200DDB9E0DB1B581C1F2800DC21
:10AD8C00A0E115001F3BDD40202805D040231B1AF5
:10AD9C009A40531E9A411543072300272B40D0E7B6
:10ADAC00C00862070243E40837E7EA0863071A435E
:10ADBC00D34BE4089F4200D12FE72403250B7C05DD
:10ADCC00640DC2E6CA462200024358D163460E0007
:10ADDC00029C0393039B5746DA08E7E7C94CFF1A1A
:10ADEC00144092E6C84D7A1C2A4200D084E022001E
:10ADFC000243002F00D0EFE0002A00D1E5E06246CC
:10AE0C0002990A4300D1C5E06346C5188C468542B9
:10AE1C008041644440422418230202D5B94B0137C7
:10AE2C001C40BA460395D5E76246851AA842924162
:10AE3C0052429146029BE31A1A004B46D21A130057
:10AE4C0091461A026CD44A464C462A4300D03AE644
:10AE5C0000260024002578E6029953460D00203A7E
:10AE6C00D540202B06D04022D21A0B0093406246CC
:10AE7C001A4393465B465A1E93411D4319E65346AB
:10AE8C005A1E012B00D1C6E09D4EB24500D1BDE645
:10AE9C0088460E000125382A10DC1F2A7FDC202171
:10AEAC002500891A070088408D40D740D440411EA8
:10AEBC008841029B3D431B1B054302936246551B75
:10AECC00AC459241029B52424F469C1AF6E5002D2E
:10AEDC0000D0B7E0002A00D1F0E001260E40634616
:10AEEC000298D90842070A43C40896E6854CFF1A13
:10AEFC0014406207E40860E781498A4200D1C9E046
:10AF0C006346C11881428041029B4042E3181B18E2
:10AF1C00DD075C08072349080D4317002B4010E799
:10AF2C0063461D1AAC4592410126029B52421C1BE2
:10AF3C008846A41A0E40C6E56346C518029B854296
:10AF4C0080419C464042644424180127230200D4CB
:10AF5C00F5E6022741E66346C51AA8428041029BEA
:10AF6C004042E41A0127241AA8E5029D52462B0000
:10AF7C00203AD34019005346202B06D04022D21A37
:10AF8C002B00934062461A4393465D466B1E9D41CF
:10AF9C000D4315E66207C0080243E4080DE71100F3
:10AFAC0027002039CF40202A05D040218A1A94400E
:10AFBC00250005430395039D6A1E95413D437DE79E
:10AFCC00002A00D144E701260E406346D908029BB3
:10AFDC005A070A43DC08F0E6002A28D06246029F92
:10AFEC00C0083A4300D1DCE6620710438022E40833
:10AFFC001203144209D0FD08154206D163460126FE
:10B00C002C00D8087B0718430E40420FC000C00824
:10B01C005207024301E663461D1AAC459241029B5E
:10B02C0052421C1B0E0088460127A41A46E56346B3
:10B03C00D908029B5A070A43DC08EEE56346029CDA
:10B04C000393C7E6C008002A00D1AAE662071043A2
:10B05C008022E40812031442D7D0029FFD08154247
:10B06C00D3D163460126D8087B072C0018430E4029
:10B07C00CBE70A002700203AD740202905D04022F0
:10B08C00521A9440250005430395039D6A1E954171
:10B09C002F4310E614000025002256E5029B604465
:10B0AC009946604592414C4452420500A4184CE725
:10B0BC001A001C002A4300D0B3E6C9E680240026FF
:10B0CC002403AEE520210025091A17E500220025EE
:10B0DC000B4C3AE5002D00D1F6E54B46DA1B9246B7
:10B0EC00002F00D16FE6382A05DC80263604344365
:10B0FC0088460E00D1E688460E000125DEE6C046E5
:10B10C00FF070000FFFF7FFFFE070000002D00D1AE
:10B11C0068E64B46D91B002F01D18A46A7E50127CB
:10B12C00382900DDC7E5802212041443AFE5C04680
:10B13C00F0B5C6461E03360BB0460D4E0C034D0043
:10B14C005F0000B5240B6D0D7F0DB5420BD0084987
:10B15C0000208F4204D1464616433000431E9841CE
:10B16C0080BCB846F0BD04430120002CF8D1EEE7BA
:10B17C00FF0700000B00020070B5164D0C0382B0E7
:10B18C004900002000920193240B490DDE0FA942C7
:10B19C0004DD1148814203DD104BF01802B070BD84
:10B1AC008020400320430E4C641A1F2C08DD0D4BED
:10B1BC005B1AD84003005842002EEFD11800EDE77F
:10B1CC00094B009A9C46030061448B40E2401343B8
:10B1DC00F1E7C046FE0300001D040000FFFFFF7FE7
:10B1EC003304000013040000EDFBFFFF70B50028D2
:10B1FC0016D0C317C5185D40C40F280000F014F911
:10B20C00104B1B1A5B055B0D0A2814DC02002E0088
:10B21C00153296400B22121AD5402D032D0B03E04C
:10B22C0000240023002500261B052B43E4072343A1
:10B23C003000190070BD0B3885402D0300262D0BF6
:10B24C00F2E7C0461E04000010B5041E10D000F03A
:10B25C00EBF80E4B1B1A5B055B0D0A280FDC0B225F
:10B26C002100121AD14015300A038440120B01E060
:10B27C00002300221B0513432000190010BD2200DF
:10B28C000B38824012030024120BF3E71E0400005B
:10B29C0070B542024300C40FFE201B0E591C550A08
:10B2AC0008420CD0E02189008C466D07120B6344D8
:10B2BC001B051343E40723432800190070BD002B22
:10B2CC0014D1002D1BD0280000F0AEF80A281CDC8D
:10B2DC000B232A001B1ADA40030015339D400E4B3A
:10B2EC0012031B1A5B05120B5B0DE1E7002D09D055
:10B2FC00130B802212031A436D07084BD8E7002367
:10B30C000022D5E70022054BD2E703002A000B3BB5
:10B31C009A400025E3E7C04689030000FF070000C0
:10B32C00F0B54B000F035B0D3B4C450F83B07F0A10
:10B33C005E1C2F4300900191CA0FC50026420BD012
:10B34C0036495C18FE2C13DDFF200023C005184382
:10B35C00D207104303B0F0BD002B02D10020002314
:10B36C00F4E73D43F0D08023DB03FF203B43EDE7C4
:10B37C00002C14DD009BFF009B01581E8341690FBC
:10B38C003B430B43590741D00F211940042928D0C6
:10B39C000433590125D501340023E0B2D6E721004E
:10B3AC001731DBDB80211E2009043943001B1F28C9
:10B3BC001BDD02267642341B0E00E64034002028AA
:10B3CC0004D017488446634499400D432B00591E02
:10B3DC008B412343590715D00F2100241940042910
:10B3EC0017D19B015B0AE0B2B0E70E4C1C192B0085
:10B3FC00A540C340A140681E854129430B4300244E
:10B40C005907C1D19B0100205B0A9FE7DB08E0B222
:10B41C009CE70433E5E7C046FE07000080FCFFFF15
:10B42C00A2FCFFFF82FCFFFF1C2101231B0498429E
:10B43C0001D3000C10391B0A984201D3000A0839B9
:10B44C001B09984201D30009043902A2105C401870
:10B45C007047C04604030202010101010000000014
:10B46C000000000010B5002903D1FFF7DDFF2030EC
:10B47C0002E00800FFF7D8FF10BDC04682B090B5BF
:10B48C0085B000AFF860381D0160426004221824BA
:10B49C00121908218C46BC4462441360FB683A1DA7
:10B4AC0003CA03C3FB680422121908218C46BC444E
:10B4BC006244083303CA03C3FB680C221219082127
:10B4CC008C46BC446244103303CA03C33B1D0122A7
:10B4DC001868596805F0D8F80C231B1908229446F3
:10B4EC00BC44634401221868596805F0CDF8C04685
:10B4FC00BD4605B090BC08BC02B0184790B585B0ED
:10B50C0000AF786006F00BF8C0467B689B681B693F
:10B51C007A6892891340F8D0C0467B689B681B6997
:10B52C007A6892891340F8D17B68002218685968B0
:10B53C0005F0AAF808243B1901221900032005F094
:10B54C0043FE7B6801221868596805F09DF805F0E8
:10B55C00DFFF21007B181B781A047B185B781B0219
:10B56C0013437A1892781343FB60FB681800BD46AE
:10B57C0005B090BDF0B585B004AF0A4B0A4A0B4C30
:10B58C000B480421694460C860C16946586808606A
:10B59C001B68116852682000FFF770FFC046BD465B
:10B5AC0001B0F0BD10010020280100200403002090
:10B5BC001801002080B582B000AF084B1800FFF7CF
:10B5CC009DFF03007B607B688022120453407B60EC
:10B5DC007B681800BD4602B080BDC0460403002045
:10B5EC0080B582B000AF0C4B1800FFF787FF03004B
:10B5FC007B607B688022120453407B607A688023D6
:10B60C001B049A4203DA7B68044AD31A7B607B687A
:10B61C001800BD4602B080BD04030020FFFF7F0070
:10B62C0080B584B000AFFB1D04221A700023FB60B0
:10B63C000023BB6008E0FFF7BDFF0200FB689B180E
:10B64C00FB60BB680133BB60FB1D1B78BA689A4278
:10B65C00F1DBFB1D1B785B001900F868FCF7D6FDCD
:10B66C0003001800BD4604B080BD0000B0B5A4B006
:10B67C0000AFF860B9607A603B608F23FB18002242
:10B68C001A7001238822BA18136001238422BA1875
:10B69C0013607223FB1800221A808223FB180022ED
:10B6AC001A808023FB18C14A1A800022C04BBA664C
:10B6BC00FB661023FA18BF4B1000190048231A0020
:10B6CC0011F01EFF1423FB6760E0BB4BFA6F5200B6
:10B6DC00D35A1800FFF78AFDBA6EFB6EFFF78CF990
:10B6EC0002000B0010001900FFF744FD0300D917EE
:10B6FC005A184A4072217B181A807A1882203B18FB
:10B70C0012881B889A4203D93B187A1812881A801F
:10B71C0072217A1880203B1812881B889A4203D217
:10B72C003B187A1812881A80A44BFA6F5200D35A1D
:10B73C001800FFF75BFDBA6EFB6EFFF75DF90200B8
:10B74C000B0010001900FFF715FD0300D9175A184C
:10B75C004A4072217B181A807A1882203B18128872
:10B76C001B889A4203D93B187A1812881A807221C6
:10B77C007A1880203B1812881B889A4203D23B18F7
:10B78C007A1812881A80FB6F0133FB67FB68143B35
:10B79C00FA6F9A4299DBA423FB181B6882217A1852
:10B7AC0012881A807B181B881800FFF71FFD0400F5
:10B7BC000D00834A834BB86EF96EFEF755FE0200FE
:10B7CC000B0020002900FCF737FE031E04D08F234A
:10B7DC00FB1801221A7053E07B4A7C4B3A667B665D
:10B7EC000923BB67BB68042B08D10923BB67784BC3
:10B7FC0001221A70774B7A681A6004E0BB68012B3F
:10B80C0001D10923BB67BB6F7B6736E08223FB1832
:10B81C001B881800FFF7EAFC7B6F013B10243A19D8
:10B82C00DB00D3181A685B68FEF71EFE02000B00E3
:10B83C00100019007B68013B3A19DB00D3181A6819
:10B84C005B68FEF7CDF902000B00BA65FB653A6E3A
:10B85C007B6EB86EF96EFEF707FE02000B00B86D3A
:10B86C00F96DFCF7D5FD031E04D07B6F8422BA184A
:10B87C00136005E07B6F013B7B677B6F002BC5DCA6
:10B88C008F23FB181B78002B00D16BE0BB68042BBB
:10B89C0012D1514B1B78002B0ED04D4B1B78002B2B
:10B8AC000AD08822BB181B68013BB9180B60494BA6
:10B8BC00BA1812681A601CE07B68062B04DD06239C
:10B8CC008822BA18136014E07B68052B04DD04236E
:10B8DC008822BA1813600CE07B68032B04DD02236A
:10B8EC008822BA18136004E07B68013B8822BA18DE
:10B8FC001360BB68042B06D1384B00221A70364BF0
:10B90C0001221A7023E0BB68012B20D1344B00229A
:10B91C001A70A023FB181B78002B18D03B68013B36
:10B92C00304AD35CDBB2032B11D82F4B01221A7097
:10B93C002E4B88217A1812681A607B181B689AB2F1
:10B94C002B4B1B889BB2D3189AB2294B1A80284BCD
:10B95C001B889BB2FA229200944663449AB2244B01
:10B96C001A8005E08423FB181B688822BA18136020
:10B97C00BB68042B13D1184B1B78002B0FD0144B26
:10B98C001B78002B0BD0134B1B688422BA1812683F
:10B99C009A4204DD0F4B1B688822BA181360882367
:10B9AC00FB181B681800BD4624B0B0BDFF3F00005B
:10B9BC0080FFCF4098EC0108A80A002098150020C1
:10B9CC00AE47E17A14AEEF3FCDCCCCCCCCCCEC3F37
:10B9DC00156400206002002014640020040500207F
:10B9EC00F40400201C0300201364002064020020D7
:10B9FC00E6650020F0B5B5B000AFB860F9603A600C
:10BA0C007B60CF23FB1800221A700022CC4BC02184
:10BA1C0079180A604B60CB4ACB4BA82439190A60C1
:10BA2C004B600022C94B802179180A604B600022C0
:10BA3C00C74BBA67FB67C74AC74B3A677B67C74AAE
:10BA4C00C74BBA66FB660022C64B3A667B66C64A93
:10BA5C00C64BBA65FB650022C54B38687968FDF7A3
:10BA6C005BFD02000B000020C249FEF7B9F8020092
:10BA7C000B00A02179180A604B600022002398214A
:10BA8C007818026043600022BB4B90203D182A605E
:10BA9C006B600022002388257E1932607360B74AE0
:10BAAC00B74B3A657B65B74AB74BBA64FB64B74A88
:10BABC00B74B3A647B64B74AB74BBA63FB63B74A7C
:10BACC00B74B3A637B63B74AB74BBA62FB62B14A76
:10BADC00B14B3A627B62B14AB14BBA61FB61B14A7C
:10BAEC00B14B3A617B61E02308229B18DB191B6880
:10BAFC00042B20D1BA6EFB6EB826BE19326073606F
:10BB0C003A6E7B6EB026BE1932607360BA6DFB6DF7
:10BB1C003C1922606360BA6BFB6B79180A604B604E
:10BB2C003A6B7B6B39180A604B60BA6AFB6A7919FD
:10BB3C000A604B602CE0E02308229B18DB191B6881
:10BB4C00012B25D18023FB181A685B68B821791862
:10BB5C000A604B60BA6FFB6FB02179180A604B60BA
:10BB6C003A6F7B6FA82179180A604B603A6D7B6D38
:10BB7C00982179180A604B60BA6CFB6C902179188B
:10BB8C000A604B603A6C7B6C882179180A604B60B8
:10BB9C00864B1B7801225340DBB2002B02D00022D3
:10BBAC00674B73E1E02308229B18DB191B68012B00
:10BBBC0005D10022704BA02179180A604B60A0249B
:10BBCC003B191A685B68B868F968FEF74DFC02000F
:10BBDC000B00BA60FB603B191A685B68E825082605
:10BBEC00A919C91908684968FEF73EFC02000B0048
:10BBFC00A919C9190A604B603B191A685B68B02413
:10BC0C00391908684968FEF72FFC02000B00391936
:10BC1C000A604B60AB19DB191A685B68B82179189C
:10BC2C0008684968FEF720FC02000B0010001900A0
:10BC3C00BA68FB68FDF770FC02000B0010001900DD
:10BC4C00A823FB181A685B68FEF70EFC02000B00B9
:10BC5C00391908684968FDF75FFC02000B00C02425
:10BC6C0039190A604B60E0239B19DB191B68042B04
:10BC7C002ED100224E4B391908684968FCF7DCFBC1
:10BC8C00031E25D04B4A4C4B391908684968FCF700
:10BC9C00C9FB031E1CD00022454B391908684968A2
:10BCAC00FEF7AAFE02000B00100019000022434B05
:10BCBC00FEF7DAFB02000B001000190000223C4BCF
:10BCCC00FDF72AFC02000B0039190A604B60B2E048
:10BCDC00E02308229B18DB191B68042B00D077E0AB
:10BCEC00344A354BC024391908684968FCF7A4FB61
:10BCFC00031E6DD00022324B391908684968FCF7D5
:10BD0C0087FB031E64D02B4A2B4B391908684968F2
:10BD1C00FEF772FE02000B00100019000022294BE6
:10BD2C00FEF7A2FB02000B0010001900264A274B5D
:10BD3C00FDF7F2FB02000B0039190A604B607AE048
:10BD4C0000002E40E030D120054F91BF0000E03FB5
:10BD5C00000032408B6CE7FBA9F192BF9A9999993C
:10BD6C009999E93F000036403BDF4F8D976E92BFAB
:10BD7C000010714000A072400000F03F58A835CD73
:10BD8C003B4EA1BF029A081B9E5EF73FFE65F7E48F
:10BD9C0061A1F4BFC217265305A3A2BFAC8BDB680D
:10BDAC00006FF83F8104C58F3177FABFF40400208F
:10BDBC0000001C40CDCCCCCCCCCC1C4000001040A6
:10BDCC00000020400000D03F3333333333331F4067
:10BDDC00C026BB191A685B689821791808684968ED
:10BDEC00FEF742FB02000B0010001900BB191A6889
:10BDFC005B68FEF739FB02000B0014001D00BB1939
:10BE0C001A685B689021791808684968FEF72CFB62
:10BE1C0002000B0020002900FDF77EFB02000B0046
:10BE2C008821791808684968FDF776FB02000B0039
:10BE3C00B9190A604B6000220023C02179180868E8
:10BE4C004968FCF7E5FA031E03D0CF23FB18012247
:10BE5C001A700022104BC021791808684968FCF749
:10BE6C00EBFA031E03D0CF23FB1801221A70CF2349
:10BE7C00FB181B78002B05D00022084BC021791829
:10BE8C000A604B60C023FB181A685B68100019002D
:10BE9C00BD4635B0F0BDC04600002C4000002E4021
:10BEAC00B0B5D0B000AFF8603A607B60C04BA02258
:10BEBC0052009B18DB190A1C1A700022BD4B9C21E6
:10BECC00490079180A604B603821FF317B18002239
:10BEDC001A70B94B1B78DBB2002B02D07B180022F6
:10BEEC001A703823FF33FB181B78002B07D1B04B8B
:10BEFC00A02252009B18DB191B78002B01D00122C9
:10BF0C0000E000223824FF343B191A701A78012102
:10BF1C000A401A700022A94B38687968FCF778FA45
:10BF2C00031E21D00022002338687968FCF784FABC
:10BF3C00031E19D03B191B7801225340DBB2002B96
:10BF4C0012D09F4B1B785BB29E4ADB00D1183A682B
:10BF5C007B680A604B609A4B1B785BB2DBB2013397
:10BF6C00DBB25AB2964B1A70954B1B785BB2002B16
:10BF7C0004DC954B1B78002B00D1A7E21A239624E6
:10BF8C0064003A19136003F08FFD0300022B02D1F9
:10BF9C001A233A19136003F087FD0300012B04D117
:10BFAC000B2396225200BA181360874B1B78002B78
:10BFBC0005D01A2398225200BA18136006E0804B61
:10BFCC001B785BB298225200BA181360002200232F
:10BFDC009021490079180A604B60002200238C21C3
:10BFEC00490079180A604B6000238A225200BA1863
:10BFFC001360764BA02252009B18DB191800D0233B
:10C00C001A00002111F036FA00237A1DFF3213605A
:10C01C005FE06B4B1B785BB21A007B1DFF331B6818
:10C02C0093420DDA664B1B785BB21A0096235B00C9
:10C03C00FB181B68D31A7A1DFF3212689A4212DA67
:10C04C00614B1B78002B3DD05D4B1B785BB21A33D8
:10C05C001A0096235B00FB181B68D31A7A1DFF325B
:10C06C0012689A422EDB574A7B1DFF331B68DB009C
:10C07C00D3181A685B6890246400391908684968F9
:10C08C00FDF74AFA02000B0039190A604B604D4A61
:10C09C007B1DFF331B68DB00D3181A685B684B49A8
:10C0AC00A02040000918C819791DFF310968C90082
:10C0BC0041180A604B608A225200BB181B6801337E
:10C0CC00BA1813607B1DFF331B6801337A1DFF32D6
:10C0DC0013607B1DFF331A6898235B00FB181B68E9
:10C0EC009A4296DB3A4B1022B81808221A2111F00A
:10C0FC0067F88A2149007B181B680122134015D070
:10C10C007B181B68002B00DA01335B1019002F4BD6
:10C11C00A02252009B18DA19CB00D3181A685B685E
:10C12C008421490079180A604B6031E08A235B0056
:10C13C00FB181B68002B00DA01335B10F0243A1952
:10C14C0013603B191B68013B204AA0256D00521956
:10C15C00D219DB00D318186859681C4B5B19DA1913
:10C16C003B191B68DB00D3181A685B68FDF7D4F920
:10C17C0002000B001000190000228023DB05FDF7E4
:10C18C002FFD02000B008421490079180A604B60D6
:10C19C0084235B00FB181A685B689C2149007918A2
:10C1AC000A604B6000237A1CFF32136069E0C046C2
:10C1BC00CBFEFFFF00002E40D265002000002C407B
:10C1CC002A030020D809002029030020D0FEFFFFFD
:10C1DC0069520108CB4B1B785BB21A007B1CFF33F6
:10C1EC001B6893420DDAC74B1B785BB21A0096237F
:10C1FC005B00FB181B68D31A7A1CFF3212689A4238
:10C20C0012DAC14B1B78002B34D0BE4B1B785BB2BF
:10C21C001A331A0096235B00FB181B68D31A7A1C7E
:10C22C00FF3212689A4225DBB84A7B1CFF331B682D
:10C23C00DB00D318186859689C235B00FB181A683C
:10C24C005B68FEF7D9FB02000B00100019000022FE
:10C25C008023DB0511F0A0FA02000B008C24640093
:10C26C00391908684968FDF757F902000B003919AC
:10C27C000A604B607B1CFF331B6801337A1CFF3256
:10C28C0013607B1CFF331A6898235B00FB181B6838
:10C29C009A429FDB8A2464003B191868FEF7A6FFBC
:10C2AC0002000B008C214900791808684968FDF7D9
:10C2BC0097FC02000B001000190011F0DBFA0200D1
:10C2CC000B00E82039180A604B6091493B181A683A
:10C2DC005B680A604B6000233A191360002200234C
:10C2EC009021490079180A604B608A4B00221A7021
:10C2FC0000228023DB05F821781802604360814B13
:10C30C001B785BB2032B0BD17F4B1B780122534064
:10C31C00DBB2002B04D000227F4B79180A604B60F3
:10C32C000023F422BA181360A6E0764B1B785BB29C
:10C33C001A00F4217B181B6893420CDA714B1B78A2
:10C34C005BB21A0096235B00FB181B68D31A7A1891
:10C35C0012689A4214DA6C4B1B78002B00D185E0E2
:10C36C00684B1B785BB21A331A0096235B00FB18E0
:10C37C001B68D31AF422BA1812689A4200DA75E0D4
:10C38C00624AF423FB181B68DB00D3181868596841
:10C39C009C235B00FB181A685B68FEF72DFB020000
:10C3AC000B001100E024381901605B005B08E422EB
:10C3BC00BA181360E823FB181A685B68F82179181F
:10C3CC0008684968FEF750F802000B003919086834
:10C3DC004968FCF71DF8031E08D1504A504B391917
:10C3EC0008684968FCF714F8031E25D04D4A4E4BDB
:10C3FC00E021791808684968FCF70AF8031E1BD07D
:10C40C008A225200BB181B680133BA1813603F4ACA
:10C41C00F423FB181B68DB00D3181A685B689024A4
:10C42C006400391908684968FDF776F802000B00BA
:10C43C0039190A604B6019E0324B1B785BB2013B37
:10C44C00F422BA1812689A4210D1384B1B78002B80
:10C45C000CD0374B1B889BB264339AB2344B1A8086
:10C46C00324B00221A702B4B01221A70F422BB188B
:10C47C001B680133BA181360F423FB181A6898234D
:10C48C005B00FB181B689A4200DA4EE78A225200C6
:10C49C00BB181B68002B19DDBB181868FEF7A6FE2D
:10C4AC0002000B0090214900791808684968FDF7D3
:10C4BC0097FB02000B009C20400039180A604B606F
:10C4CC001C493B181A685B680A604B600D4B1B7863
:10C4DC005BB2192B0BDD0B4B1B785BB2DBB21A3B3F
:10C4EC00DBB25AB2074B1A70074B01221A709C230D
:10C4FC005B00FB181A685B6810001900BD4650B051
:10C50C00B0BDC0462A03002029030020D809002012
:10C51C00080000202C0300200000F03F333333339D
:10C52C003333C33F9A9999999999C93FF4040020E0
:10C53C00E665002000000020B0B590B000AF786038
:10C54C003F23FB1800221A702723FB1806221A70AF
:10C55C002623FB1832221A702523FB184B221A7043
:10C56C003D23FB1800221A703C257B1904221A70FB
:10C57C000022C14BBA61FB611723FC1803F005FBC9
:10C58C0003002370BD4B1B78DBB2002B02D07B1950
:10C59C000C221A70BA4B1A781623FB1803219142FD
:10C5AC00924152421A707B68002B02D07B680F2B91
:10C5BC0001DD01237B60B34B1B78002B22D00023C1
:10C5CC00BB6318E03D217B181A787B1801321A7076
:10C5DC00AD4ABB6BD3181B78DBB22722BA18127882
:10C5EC009A4205D83F217B181A787B1801321A70B1
:10C5FC00BB6B0133BB63A54B1B781A00BB6B93421F
:10C60C00E0DB61E0A24B1B781A00A24B1B78D3181D
:10C61C003B619E4B1B7818000F23FB180122111C49
:10C62C003A69824201DC0022111C197001237B63E0
:10C63C0044E0974B1B781A007B6BD817D10F9342B1
:10C64C0048410300D9B27B6B3A69DC0FD0179A4290
:10C65C0044412300DBB20B40DBB2002B15D10F237E
:10C66C00FB181C78894B1B781A003B6911001800C9
:10C67C00FBF7B2FE0B001A007B6BD80FD1179A4256
:10C68C0048410300DBB2234015D03D217B181A78BA
:10C69C007B1801321A707B6B013B7B4AD35CDBB29B
:10C6AC002722BA1812789A4205D83F217B181A789B
:10C6BC007B1801321A707B6B01337B63734B1B78D5
:10C6CC001A007B6B9342B4DD00220023BA62FB623A
:10C6DC00714B5B6C042B1AD1704B1B68012B16D061
:10C6EC003F23FB181B781800FEF7AEFD00226C4BA5
:10C6FC00FDF7BAFE02000B00100019000022694B76
:10C70C00FDF76EFA02000B00BA62FB6243E0624B6B
:10C71C005B6C042B21D1614B1B68012B1DD13F237A
:10C72C00FB181B781800FEF78FFD00225C4BFDF701
:10C73C009BFE02000B0014001D00544B1B781800CC
:10C74C00FEF782FD02000B0020002900FDF748FADD
:10C75C0002000B00BA62FB621DE03F23FB181B7842
:10C76C001800FEF771FD00224D4BFDF77DFE020017
:10C77C000B0014001D003D23FB181B781800FEF75E
:10C78C0063FD02000B0020002900FDF729FA0200CE
:10C79C000B00BA62FB62444B1B78DBB201225340A4
:10C7AC00DBB2002B04D03E23FB1804221A7087E066
:10C7BC001623FB181B78002B04D03E23FB180322F6
:10C7CC001A707DE0394B1B78002B04D03E23FB18EC
:10C7DC0005221A7074E01723FA183C23FB18127800
:10C7EC001B789A4204D33E23FB1802221A7067E08E
:10C7FC002F4B80331868596800222E4BFBF702FE32
:10C80C00031E04D03E23FB1806221A7058E0262380
:10C81C00FB181B781800FEF7E9FC02000B00B86A45
:10C82C00F96AFBF713FE031E12D02523FB181B78A5
:10C83C001800FEF7DBFC02000B00B86AF96AFBF784
:10C84C00E7FD031E04D03E23FB1801221A7037E0CB
:10C85C002523FB181B781800FEF7C8FC02000B0000
:10C86C00B86AF96AFBF7F2FD031E25D03E23FB18CC
:10C87C0002221A7024E0C04600004940DB6500200B
:10C88C00846200202B0300201C0300207602002071
:10C89C003A01002028620020306200204001002074
:10C8AC000000594000001440D6650020750200209D
:10C8BC003009002000002E403E23FB1800221A7085
:10C8CC0002F028F903001A003E217B181B789342D2
:10C8DC0004D07B181B78180002F00CF91723FA18F7
:10C8EC003C23FB1812781B789A4201D100F076F8A1
:10C8FC000F4B5B6C042B13D1BA69FB69B86AF96AEC
:10C90C00FBF7A4FD031E0BD00A4B1B68012B07D1B0
:10C91C00084B02221A60022003F058F800F0BAF813
:10C92C003E23FB181B781800BD4610B0B0BDC046A6
:10C93C00306200204001002080B586B000AFF86066
:10C94C003A607B601723FB1807221A700022204BD9
:10C95C0038687968FBF756FD031E06D11D4B1B7812
:10C96C0001225340DBB2002B09D0FB68013B1A4A71
:10C97C00D25CD2B20132D1B2174AD1540FE0FB686B
:10C98C00013B154AD35CDBB2002B08D0FB68013BA2
:10C99C00114AD25CD2B2013AD1B20F4AD154FB68DF
:10C9AC00013B0D4AD35CDBB217217A1812789A42FC
:10C9BC0005D2FB68013B084A79180978D154FB6809
:10C9CC00013B054AD35CDBB21800BD4606B080BD06
:10C9DC0000002E40F40400201C03002080B582B01F
:10C9EC0000AF00237B600AE0134A7B68DB00D118A0
:10C9FC00002200230A604B607B6801337B607B68FC
:10CA0C00192BF1DD0D4B00221A700D4B00221A7000
:10CA1C000C4900220C4B0A604B600C490C4A0D4B24
:10CA2C000A604B600C4B00221A7002F0BDFCC04631
:10CA3C00BD4602B080BDC046D80900202A030020A4
:10CA4C00290300200000002000002E4010000020D0
:10CA5C000E2DB29DEFFF58402B03002080B582B005
:10CA6C0000AF00237B600AE0094A7B68DB00D11829
:10CA7C00002200230A604B607B6801337B607B687B
:10CA8C000C2BF1DD02F00CFDC046BD4602B080BDA2
:10CA9C009862002080B582B000AF00237B6007E075
:10CAAC00084A7B68D31800221A707B6801337B60BC
:10CABC007B680C2BF4DD02F06BFDC046BD4602B06A
:10CACC0080BDC0461C03002080B584B000AF7860E8
:10CADC000323FB600023BB6018E07B68012B01D1B2
:10CAEC000523FB607B68022B01D10923FB607B686B
:10CAFC00042B01D10923FB60FB68D9B2094ABB683E
:10CB0C00D3180A1C1A70BB680133BB60BB680C2BB2
:10CB1C00E3DD054B00221A7002F0D8FDC046BD467D
:10CB2C0004B080BD886200208662002080B586B08B
:10CB3C0000AF786039601623FB18012252421A802C
:10CB4C0000233B612EE03B697A68D3181B781900EF
:10CB5C001622BB18BA1812884A401A800823FB60A8
:10CB6C001AE016217B181B88012213400BD07B186E
:10CB7C007A18128852081A807B187A1812880F4972
:10CB8C004A401A8005E01622BB18BA1812885208BF
:10CB9C001A80FB68013BFB60FB68002BE1D13B6911
:10CBAC0001333B613A693B689A42CCDB1623FB1894
:10CBBC001B881800BD4606B080BDC04601A0FFFF13
:10CBCC0080B500AF054B00225A70044B00225A80EE
:10CBDC00024B01221A70C046BD4680BD30030020B6
:10CBEC0080B582B000AF78603960144B1B7801229D
:10CBFC005340DBB2002B01D0FFF7E2FF3A687B68B1
:10CC0C0011001800FFF792FF03001A000B4B5A801B
:10CC1C000A4B5B88DAB2094B1A71084B5B881B0A0A
:10CC2C009BB2DAB2054B5A71044B01225A70034B7A
:10CC3C005B881800BD4602B080BDC04630030020A2
:10CC4C0080B582B000AF786039603A687B681100BB
:10CC5C001800FFF7C5FF034B1B791800BD4602B047
:10CC6C0080BDC0463003002080B500AF054B5B781B
:10CC7C00002B02D0034B5B7900E000231800BD466B
:10CC8C0080BDC0463003002080B582B000AF786014
:10CC9C0039607B6800221868596803F0F5FC3B6822
:10CCAC0001221900032004F0EDF97B6801221868B9
:10CCBC00596803F0E9FCC046BD4602B080BD90B592
:10CCCC0085B000AF78600C217B1828221A707B1875
:10CCDC0000225A707B1801229A700C007A187B681B
:10CCEC0011001800FFF7D0FF21007B1838221A70B2
:10CCFC007B1800225A707B1801229A700C007A184B
:10CD0C007B6811001800FFF7BFFF21007B1802227F
:10CD1C001A707B1800225A707B1803229A700C0030
:10CD2C007A187B6811001800FFF7AEFF21007B1802
:10CD3C0030221A707B1800225A707B1803229A70CA
:10CD4C007A187B6811001800FFF79EFFC046BD469D
:10CD5C0005B090BD80B584B000AFF8603B1D196084
:10CD6C005A60FB683A1D03CA03C33B1D01221868B5
:10CD7C00596803F089FCFB681800FFF7A0FFC04658
:10CD8C00BD4604B080BD80B584B000AF786039601A
:10CD9C003A6890231B029A4202D990231B023B60F3
:10CDAC000C217B1818221A703B681B0ADAB27B180C
:10CDBC005A703B68DAB27B189A707A187B6811004B
:10CDCC001800FFF761FFC046BD4604B080BD80B5BA
:10CDDC0084B000AF786039603A6890231B029A42A5
:10CDEC0002D990231B023B600C217B1819221A706C
:10CDFC003B681B0ADAB27B185A703B68DAB27B18B4
:10CE0C009A707A187B6811001800FFF73DFFC04636
:10CE1C00BD4604B080BD0000F0B5B3B002AFB96040
:10CE2C003A607B600E23FB18021C1A80D84B5B6C9B
:10CE3C007B67D74B5B683B676F23FB1801221A702B
:10CE4C000023BC22BA18136000233B630023FB624F
:10CE5C000023BB6200237B620023BB660023B82245
:10CE6C00BA1813600023B422BA1813600023B0223E
:10CE7C00BA18136000237B6600233B620023FB611E
:10CE8C000023BB6100237B6132233B663223FB65AD
:10CE9C003B6F012B01D1FB6D7B623B6F042B01D1EE
:10CEAC000A237B62BB4B9A88BA4B1A80B94B9A887F
:10CEBC00B84B5A80B84B5A88B74B1A80B64B1B8864
:10CECC001A00B44B1B88D31ADA179B18534018005E
:10CEDC00FCF794FA021CB14B1A60AF4B5B881A003A
:10CEEC00AC4B5B88D31ADA179B1853401800FCF72D
:10CEFC0085FA021CA94B5A60A94B1A680E243B19DF
:10CF0C001B88A849A54801F087FAA74B41221A6053
:10CF1C00A54B1A683B191B88A049A24801F00DFBD0
:10CF2C00A14B21221A60A04B1A683B191B889D4902
:10CF3C009A4801F002FBAF23FB1801221A70DE2382
:10CF4C005A009A4B0021180010F094FA0023A822E2
:10CF5C00BA18136002E2796A0E26BB191A883B6E66
:10CF6C00D21AAF23FC1830203D188E482023FB1812
:10CF7C0000932B0001F070F803002370AF23FB1813
:10CF8C001B78002B00D1E9E1396B2823FA1885486E
:10CF9C001823FB1800931300012201F0C5F8396B1C
:10CFAC00BB191B885A1E2423FC187E481423FB181B
:10CFBC000093230001F025F93B6BBC22BA181360D7
:10CFCC003B6AB8243A191360BB69191C3B191868E1
:10CFDC00FCF750F8031CB422BA1813607B69191CB7
:10CFEC003B191868FCF746F8031CB022BA181360FA
:10CFFC006F23FB181B78002B00D1DFE0BB6AA42148
:10D00C007A1813607B6AA022BA1813603A6B7B18EB
:10D01C001B68D31A642B03DD3B6B643B7A181360DB
:10D02C003B6BA0217A181268D31A642B03DD3B6B7F
:10D03C0064337A181360A0257B191A68A4243B1951
:10D04C001B68D31A01339B0018000FF0BBFF0300C1
:10D05C00BB65544B21007A1812689200D3587B653B
:10D06C00504B7A1912689200D3583B657B181B6899
:10D07C009C22BA18136040E0396D786DFBF7FAFF0B
:10D08C00031C1C1C9C257B191A68A426BB191B6845
:10D09C00D31A1800FCF7B2F9031C191C201CFBF75F
:10D0AC00ABFE031C1C1CA023FB181A68BB191B68C5
:10D0BC00D31A1800FCF7A2F9031C191C201CFBF74F
:10D0CC00B5FC031CBB64374B7A1912689200D35819
:10D0DC00191CB86CFBF720FB031C7B647B191A68CA
:10D0EC00BB191B68D31A9B00BA6DD3187A6C1A60E3
:10D0FC007B191B6801337A1913609C23FB181A687F
:10D10C00A0217B181B689A42B6DD7B181A68A425EF
:10D11C007B191B68D21A4F26BC192C23F918B86D31
:10D12C001C23FB1800930B00002100F095FF03005B
:10D13C002370BB191B78002B3AD0FB6A7A19126842
:10D14C00D318BC22BA181360FB69B822B9180B604B
:10D15C00796DBB181868FBF78DFF031C7B660021EB
:10D16C00786EFBF7ADF9031E09D07B6EB422B918AB
:10D17C000B60BB181B68B022BA18136003E0BC2309
:10D18C00FB181B68BB66BC23FB181B68BB6611E055
:10D19C0030620020A80A002098150020882000206A
:10D1AC0018000020683600201C00002038030020E6
:10D1BC000023BB66BB6D18000FF00EFFBB6ABC25CD
:10D1CC007A191268D31ADA179B185340052B00DC16
:10D1DC00C4E07B6A7A191268D31ADA179B18534089
:10D1EC00052B00DCBAE07A6ABB6AD31ADA179B18F3
:10D1FC005340142B00DCB1E07B191868FCF7FEF8E7
:10D20C00CC49A8243B191B685A1C13009B009B1883
:10D21C00DB00CB1804331860BB6A1800FCF7EEF87F
:10D22C00C4493B191A6813009B009B18DB00CB18F0
:10D23C00303318607B6A1800FCF7E0F8BD493B19E5
:10D24C001A6813009B009B18DB00CB183433186052
:10D25C00B8493B191A6813009B009B18DB00CB18CC
:10D26C003833B822BA1812681A60B2493B191A68D6
:10D27C0013009B009B18DB00CB183C33B422BA186C
:10D28C0012681A60AB493B191A6813009B009B1873
:10D29C00DB00CB184033B022BA1812681A607B1925
:10D2AC001A68A54B1100180001F044F8A1493B196C
:10D2BC001A6813009B009B18DB00CB1844331860D2
:10D2CC00BB6A7A191268D31ADA179B185340052BCC
:10D2DC0012DD7B6A7A191268D31ADA179B1853403D
:10D2EC00052B09DD7A6ABB6AD31ADA179B185340EF
:10D2FC00142B01DD012300E000231800FCF77EF85D
:10D30C008C49A8243B191A6813009B009B18DB005E
:10D31C00CB18483318603B6B1800FCF76FF8854945
:10D32C003B191A6813009B009B18DB00CB184C337D
:10D33C001860824BBC22BA1812689200D1587D48F2
:10D34C003B191A6813009B009B18DB00C318503361
:10D35C0019603B191B6801333A191360AF23FB1892
:10D36C001B78002B05D0A823FB181B68092B00DCAD
:10D37C00F1E500239822BA181360714B9422BA1865
:10D38C00136000239022BA18136000238C22BA1861
:10D39C0013608B23FB1800221A703B6F042B00D0F8
:10D3AC00BDE0684B1B78002B67D000238422BA1891
:10D3BC00136059E05F4984243B191A6813009B00E1
:10D3CC009B18DB00CB1850331B68181CFDF760FF53
:10D3DC003A687B68FDF710FB02000B001000190087
:10D3EC00FDF7C8FE0300DA179B1853401800FCF732
:10D3FC0005F8031CFB6394257B191968F86BFBF784
:10D40C0041F8031E2AD04B493B191A6813009B00A4
:10D41C009B18DB00CB1848331B680021181CFBF74A
:10D42C0045F8031E0CD03B191B689022BA181360E8
:10D43C008B23FB1801221A70FB6B7A1913600DE019
:10D44C008B23FB181B7801225340DBB2002B05D039
:10D45C008423FB181B688C22BA1813608422BB1817
:10D46C001B680133BA1813608423FB181A68A823AD
:10D47C00FB181B689A429DDB51E000238022BA18EE
:10D48C00136044E02B4980243B191A6813009B005D
:10D49C009B18DB00CB1844331B683B6494257B1929
:10D4AC001968386CFAF7EEFF031E2AD021493B1994
:10D4BC001A6813009B009B18DB00CB1848331B68C1
:10D4CC000021181CFAF7F2FF031E0CD03B191B6845
:10D4DC009022BA1813608B23FB1801221A703B6C34
:10D4EC007A1913600DE08B23FB181B780122534033
:10D4FC00DBB2002B05D08023FB181B688C22BA18DA
:10D50C0013608022BB181B680133BA181360802388
:10D51C00FB181A68A823FB181B689A42B2DB3B6FF6
:10D52C00012B00D0E3E0084B1B78002B66D00023C6
:10D53C00FB675CE03803002068360020484C002074
:10D54C0000FEFF4609640020086400209649FA6F2B
:10D55C0013009B009B18DB00CB1850331B68181C66
:10D56C00FDF796FE3A687B68FDF746FA02000B0061
:10D57C0010001900FDF7FEFD0300DA179B1853404D
:10D58C001800FBF73BFF031C7B6394243B191968C1
:10D59C00786BFAF777FF031E26D08349FA6F1300D6
:10D5AC009B009B18DB00CB1848331B680021181C10
:10D5BC00FAF77CFF031E0BD0FB6F9022BA18136096
:10D5CC008B23FB1801221A707B6B3A1913600BE04A
:10D5DC008B23FB181B7801225340DBB2002B03D0AA
:10D5EC00FB6F8C22BA181360FB6F0133FB67FA6F69
:10D5FC00A823FB181B689A42A8DB78E0A823FB1829
:10D60C001B68022B21D1684B9B6C0021181CFAF76C
:10D61C004DFF031E08D000239022BA1813608B23F1
:10D62C00FB1801221A7062E05F4B1B6F0021181C63
:10D63C00FAF73CFF031E5AD001239022BA1813604C
:10D64C008B23FB1801221A7051E00023BB6748E0C2
:10D65C005549BA6F13009B009B18DB00CB183C3369
:10D66C0018685149BA6F13009B009B18DB00CB184C
:10D67C0040331B68191CFBF7BFFB031CBB639824CE
:10D68C003B191968B86BFAF711FF031E26D04649EF
:10D69C00BA6F13009B009B18DB00CB1848331B6838
:10D6AC000021181CFAF702FF031E0BD0BB6F90224F
:10D6BC00BA1813608B23FB1801221A70BB6B3A1932
:10D6CC0013600BE08B23FB181B7801225340DBB259
:10D6DC00002B03D0BB6F8C22BA181360BB6F0133C5
:10D6EC00BB67BA6FA823FB181B689A42B0DB8B236D
:10D6FC00FB181B7801225340DBB2002B05D08C2386
:10D70C00FB181B689022BA181360A823FB181B681F
:10D71C00002B51D1244B00221A60234B00229A601B
:10D72C000E23FB181B885A1E1F4BDA601E4B1A68FF
:10D73C001E4B9200D2581C4B1A611B4B9A681B4B08
:10D74C009200D258184B5A61174BDA68174B92005B
:10D75C00D258154B9A61144B1A68154B9200D3583A
:10D76C00181CFAF7D7FE03009AB20F4B9A830E4B94
:10D77C009A680F4B9200D358181CFAF7CBFE030093
:10D78C009AB2094BDA83084BDA68094B9200D358EA
:10D79C00181CFAF7BFFE03009AB2034B1A84054B10
:10D7AC0000221A60C1E0C04638030020484C00201B
:10D7BC0068360020EC650020DA4990243B191A6881
:10D7CC0013009B009B18DB00CB1838331B68181C0C
:10D7DC00FAF7A0FE03009AB2D24B9A83D1493B19B7
:10D7EC001A6813009B009B18DB00CB1830331B68A6
:10D7FC00181CFBF7E3FD0200CB4B9200D358181C0E
:10D80C00FAF788FE03009AB2C64BDA83C5493B1976
:10D81C001A6813009B009B18DB00CB1834331B6871
:10D82C00181CFBF7CBFD0200BF4B9200D358181C01
:10D83C00FAF770FE03009AB2BA4B1A84B9493B1935
:10D84C001B685A1C13009B009B18DB00CB1804337D
:10D85C001B68181CFBF7B2FD0200B44B9200D258A7
:10D86C00B04B1A61AF493B191A6813009B009B1807
:10D87C00DB00CB1830331B68181CFBF79FFD020034
:10D88C00AA4B9200D258A74B5A61A6493B191A6869
:10D89C0013009B009B18DB00CB1834331B68181C3F
:10D8AC00FBF78CFD0200A14B9200D2589D4B9A6164
:10D8BC009C493B191A6813009B009B18DB00CB1882
:10D8CC003C331B68181CFAF725FE03009AB2954BE3
:10D8DC005A8494493B191A6813009B009B18DB006F
:10D8EC00CB1840331B68181CFAF714FE03009AB2CD
:10D8FC008C4B9A848B493B191A6813009B009B181C
:10D90C00DB00CB184C331B68181CFBF757FD0200CF
:10D91C00864B9200D358181CFBF750FD0300DA1706
:10D92C009B1853401A00824B1A607E4B1B8C1A00BA
:10D93C007C4BDB8BD31ADA179B1853409AB2794B7A
:10D94C001A85784B1B69181CFAF7E4FD0200784B1A
:10D95C001A603B6F012B17D1724B1B69181CFDF71A
:10D96C0097FC744B1B68013B734ADB00D3181A6895
:10D97C005B68FBF7D1FD02000B0010001900FDF7EE
:10D98C00CFFC021C674B1A61664B1A8DBB689A87D9
:10D99C00644B1B69181CFDF77BFC02000B00B9687B
:10D9AC000A644B645F4B5B69181CFDF771FC020049
:10D9BC000B00B9680A654B655A4B9B69181CFDF73F
:10D9CC0067FC02000B00B9680A664B66554B998BD5
:10D9DC00BB686A229952534BD98BBB686E22995201
:10D9EC00504B198CBB68722299524E4B598CBB68A8
:10D9FC00762299524B4B998CBB687A2299524D4B9B
:10DA0C0048229B5C002B05D0BB686A22995ABB68E4
:10DA1C00722299523B6F012B00D0A8E1414B9A8B9B
:10DA2C00FA23DB019A4203D9444B01221A7002E01B
:10DA3C00424B00221A703B4B9B8B414A934203D8BA
:10DA4C00404B01221A7002E03E4B00221A70354BFB
:10DA5C00DB8B3D4A934203D93C4B01221A7002E006
:10DA6C003A4B00221A703A4B00221A702D4B1B8C29
:10DA7C00354A934203D9374B01221A7002E0354BD9
:10DA8C0000221A70344B00221A70264B1A8DFA237E
:10DA9C005B019A4203D9314B01221A7002E02F4BE1
:10DAAC0000221A701F4B5B8C2D4A934203D92D4BCD
:10DABC0001221A7002E02B4B00221A70194B9B8C1E
:10DACC00274A934203D9284B01221A7002E0264BB5
